Component: ARM Compiler 5.06 update 7 (build 960) Tool: armlink [4d3601]

==============================================================================

Section Cross References

    startup_stm32f401xe.o(STACK) refers (Special) to heapauxi.o(.text) for __use_two_region_memory
    startup_stm32f401xe.o(HEAP) refers (Special) to heapauxi.o(.text) for __use_two_region_memory
    startup_stm32f401xe.o(RESET) refers (Special) to heapauxi.o(.text) for __use_two_region_memory
    startup_stm32f401xe.o(RESET) refers to startup_stm32f401xe.o(STACK) for __initial_sp
    startup_stm32f401xe.o(RESET) refers to startup_stm32f401xe.o(.text) for Reset_Handler
    startup_stm32f401xe.o(RESET) refers to stm32f4xx_it.o(i.NMI_Handler) for NMI_Handler
    startup_stm32f401xe.o(RESET) refers to stm32f4xx_it.o(i.HardFault_Handler) for HardFault_Handler
    startup_stm32f401xe.o(RESET) refers to stm32f4xx_it.o(i.MemManage_Handler) for MemManage_Handler
    startup_stm32f401xe.o(RESET) refers to stm32f4xx_it.o(i.BusFault_Handler) for BusFault_Handler
    startup_stm32f401xe.o(RESET) refers to stm32f4xx_it.o(i.UsageFault_Handler) for UsageFault_Handler
    startup_stm32f401xe.o(RESET) refers to stm32f4xx_it.o(i.SVC_Handler) for SVC_Handler
    startup_stm32f401xe.o(RESET) refers to stm32f4xx_it.o(i.DebugMon_Handler) for DebugMon_Handler
    startup_stm32f401xe.o(RESET) refers to stm32f4xx_it.o(i.PendSV_Handler) for PendSV_Handler
    startup_stm32f401xe.o(RESET) refers to time_delays.o(i.SysTick_Handler) for SysTick_Handler
    startup_stm32f401xe.o(.text) refers (Special) to heapauxi.o(.text) for __use_two_region_memory
    startup_stm32f401xe.o(.text) refers to system_stm32f4xx.o(i.SystemInit) for SystemInit
    startup_stm32f401xe.o(.text) refers to __main.o(!!!main) for __main
    startup_stm32f401xe.o(.text) refers to startup_stm32f401xe.o(HEAP) for Heap_Mem
==============================================================================

Removing Unused input sections from the image.

    Removing stm32f4xx_it.o(.rev16_text), (4 bytes).
    Removing stm32f4xx_it.o(.revsh_text), (4 bytes).
    Removing stm32f4xx_it.o(.rrx_text), (6 bytes).
    Removing stm32f4xx_it.o(.constdata), (43 bytes).
    Removing system_stm32f4xx.o(.rev16_text), (4 bytes).
    Removing system_stm32f4xx.o(.revsh_text), (4 bytes).
    Removing system_stm32f4xx.o(.rrx_text), (6 bytes).
    Removing system_stm32f4xx.o(i.SystemCoreClockUpdate), (192 bytes).
    Removing system_stm32f4xx.o(.constdata), (24 bytes).
    Removing stm32f4xx_ll_utils.o(.rev16_text), (4 bytes).
    Removing stm32f4xx_ll_utils.o(.revsh_text), (4 bytes).
    Removing stm32f4xx_ll_utils.o(.rrx_text), (6 bytes).
    Removing stm32f4xx_ll_utils.o(i.LL_Init1msTick), (28 bytes).
    Removing stm32f4xx_ll_utils.o(i.LL_PLL_ConfigSystemClock_HSE), (152 bytes).
    Removing stm32f4xx_ll_utils.o(i.LL_PLL_ConfigSystemClock_HSI), (104 bytes).
    Removing stm32f4xx_ll_utils.o(i.LL_RCC_HSE_IsReady), (16 bytes).
    Removing stm32f4xx_ll_utils.o(i.LL_RCC_HSI_IsReady), (16 bytes).
    Removing stm32f4xx_ll_utils.o(i.LL_RCC_PLL_ConfigDomain_SYS), (48 bytes).
==============================================================================

Image Symbol Table

    Local Symbols

    Symbol Name                              Value     Ov Type        Size  Object(Section)

    ../clib/angel/boardlib.s                 0x00000000   Number         0  boardinit1.o ABSOLUTE
    ../clib/angel/boardlib.s                 0x00000000   Number         0  boardinit2.o ABSOLUTE
    ../clib/angel/boardlib.s                 0x00000000   Number         0  boardinit3.o ABSOLUTE
    ../clib/angel/boardlib.s                 0x00000000   Number         0  boardshut.o ABSOLUTE
    ../clib/angel/handlers.s                 0x00000000   Number         0  __scatter_copy.o ABSOLUTE
    ../clib/angel/handlers.s                 0x00000000   Number         0  __scatter_zi.o ABSOLUTE
    ../clib/angel/kernel.s                   0x00000000   Number         0  rtexit2.o ABSOLUTE
    ../clib/angel/kernel.s                   0x00000000   Number         0  __rtentry4.o ABSOLUTE
    ../clib/angel/kernel.s                   0x00000000   Number         0  __rtentry.o ABSOLUTE
    ../clib/angel/kernel.s                   0x00000000   Number         0  __rtentry2.o ABSOLUTE
    ../clib/angel/kernel.s                   0x00000000   Number         0  rtexit.o ABSOLUTE
    ../clib/angel/rt.s                       0x00000000   Number         0  rt_raise.o ABSOLUTE
    ../clib/angel/scatter.s                  0x00000000   Number         0  __scatter.o ABSOLUTE
    ../clib/angel/startup.s                  0x00000000   Number         0  __main.o ABSOLUTE
    ../clib/angel/sys.s                      0x00000000   Number         0  indicate_semi.o ABSOLUTE
    ../clib/angel/sys.s                      0x00000000   Number         0  use_no_semi.o ABSOLUTE
    ../clib/angel/sys.s                      0x00000000   Number         0  sys_stackheap_outer.o ABSOLUTE
    ../clib/angel/sys.s                      0x00000000   Number         0  libspace.o ABSOLUTE
    ../clib/angel/sysapp.c                   0x00000000   Number         0  sys_wrch.o ABSOLUTE
    ../clib/angel/sysapp.c                   0x00000000   Number         0  sys_exit.o ABSOLUTE
    ../clib/angel/sysapp.c                   0x00000000   Number         0  sys_command.o ABSOLUTE
    ../clib/armsys.c                         0x00000000   Number         0  argv_veneer.o ABSOLUTE
    ../clib/armsys.c                         0x00000000   Number         0  argv_veneer.o ABSOLUTE
    ../clib/armsys.c                         0x00000000   Number         0  no_argv.o ABSOLUTE
    ../clib/armsys.c                         0x00000000   Number         0  _get_argv_nomalloc.o ABSOLUTE
    ../clib/heapalloc.c                      0x00000000   Number         0  hrguard.o ABSOLUTE
    ../clib/heapaux.c                        0x00000000   Number         0  heapauxi.o ABSOLUTE
    ../clib/libinit.s                        0x00000000   Number         0  libinit.o ABSOLUTE
    ../clib/libinit.s                        0x00000000   Number         0  libshutdown.o ABSOLUTE
    ../clib/libinit.s                        0x00000000   Number         0  libinit2.o ABSOLUTE
    ../clib/libinit.s                        0x00000000   Number         0  libshutdown2.o ABSOLUTE
    ../clib/memcpset.s                       0x00000000   Number         0  rt_memclr.o ABSOLUTE
    ../clib/memcpset.s                       0x00000000   Number         0  rt_memcpy_w.o ABSOLUTE
    ../clib/memcpset.s                       0x00000000   Number         0  rt_memclr_w.o ABSOLUTE
    ../clib/misc.s                           0x00000000   Number         0  printf_stubs.o ABSOLUTE
    ../clib/printf.c                         0x00000000   Number         0  _printf_intcommon.o ABSOLUTE
    ../clib/printf.c                         0x00000000   Number         0  __2sprintf.o ABSOLUTE
    ../clib/printf.c                         0x00000000   Number         0  __printf_nopercent.o ABSOLUTE
    ../clib/printf.c                         0x00000000   Number         0  _printf_char_common.o ABSOLUTE
    ../clib/printf.c                         0x00000000   Number         0  _sputc.o ABSOLUTE
    ../clib/printf.c                         0x00000000   Number         0  _printf_char.o ABSOLUTE
    ../clib/printf.c                         0x00000000   Number         0  __printf_flags_ss_wp.o ABSOLUTE
    ../clib/printf.c                         0x00000000   Number         0  noretval__2sprintf.o ABSOLUTE
    ../clib/printf.c                         0x00000000   Number         0  _printf_hex_ll_ptr.o ABSOLUTE
    ../clib/printf.c                         0x00000000   Number         0  _printf_str.o ABSOLUTE
    ../clib/printf.c                         0x00000000   Number         0  _printf_hex_ll.o ABSOLUTE
    ../clib/printf.c                         0x00000000   Number         0  __printf_ss_wp.o ABSOLUTE
    ../clib/printf.c                         0x00000000   Number         0  __printf_flags_wp.o ABSOLUTE
    ../clib/printf.c                         0x00000000   Number         0  __printf_wp.o ABSOLUTE
    ../clib/printf.c                         0x00000000   Number         0  __printf_flags_ss.o ABSOLUTE
    ../clib/printf.c                         0x00000000   Number         0  __printf.o ABSOLUTE
    ../clib/printf.c                         0x00000000   Number         0  __printf_flags.o ABSOLUTE
    ../clib/printf.c                         0x00000000   Number         0  _printf_hex_int.o ABSOLUTE
    ../clib/printf.c                         0x00000000   Number         0  _printf_hex_int_ll.o ABSOLUTE
    ../clib/printf.c                         0x00000000   Number         0  _printf_hex_int_ll_ptr.o ABSOLUTE
    ../clib/printf.c                         0x00000000   Number         0  _printf_hex_ptr.o ABSOLUTE
    ../clib/printf.c                         0x00000000   Number         0  _printf_hex_int_ptr.o ABSOLUTE
    ../clib/printf.c                         0x00000000   Number         0  __printf_ss.o ABSOLUTE
    ../clib/printf_percent.s                 0x00000000   Number         0  _printf_x.o ABSOLUTE
    ../clib/printf_percent.s                 0x00000000   Number         0  _printf_percent.o ABSOLUTE
    ../clib/printf_percent.s                 0x00000000   Number         0  _printf_percent_end.o ABSOLUTE
    ../clib/printf_percent.s                 0x00000000   Number         0  _printf_s.o ABSOLUTE
    ../clib/signal.c                         0x00000000   Number         0  defsig_segv_inner.o ABSOLUTE
    ../clib/signal.c                         0x00000000   Number         0  defsig_cppl_inner.o ABSOLUTE
    ../clib/signal.c                         0x00000000   Number         0  defsig_pvfn_inner.o ABSOLUTE
    ../clib/signal.c                         0x00000000   Number         0  defsig_stak_inner.o ABSOLUTE
    ../clib/signal.c                         0x00000000   Number         0  defsig_rtred_inner.o ABSOLUTE
    ../clib/signal.c                         0x00000000   Number         0  defsig_fpe_inner.o ABSOLUTE
    ../clib/signal.c                         0x00000000   Number         0  defsig_abrt_inner.o ABSOLUTE
    ../clib/signal.c                         0x00000000   Number         0  defsig_general.o ABSOLUTE
    ../clib/signal.c                         0x00000000   Number         0  __raise.o ABSOLUTE
    ../clib/signal.c                         0x00000000   Number         0  defsig_rtmem_inner.o ABSOLUTE
    ../clib/signal.c                         0x00000000   Number         0  defsig_exit.o ABSOLUTE
    ../clib/signal.c                         0x00000000   Number         0  defsig_rtmem_formal.o ABSOLUTE
    ../clib/signal.c                         0x00000000   Number         0  defsig_rtmem_outer.o ABSOLUTE
    ../clib/signal.c                         0x00000000   Number         0  defsig_other.o ABSOLUTE
    ../clib/signal.s                         0x00000000   Number         0  defsig.o ABSOLUTE
    ../clib/stdlib.c                         0x00000000   Number         0  exit.o ABSOLUTE
    ../clib/string.c                         0x00000000   Number         0  strlen.o ABSOLUTE
    ../fplib/fpinit.s                        0x00000000   Number         0  fpinit.o ABSOLUTE
    Clk_Config.c                             0x00000000   Number         0  clk_config.o ABSOLUTE
    Clk_Config.c                             0x00000000   Number         0  clk_config.o ABSOLUTE
    LCD_Display.c                            0x00000000   Number         0  lcd_display.o ABSOLUTE
    LCD_Display.c                            0x00000000   Number         0  lcd_display.o ABSOLUTE
    Low_Layer_Library\\stm32f4xx_ll_adc.c    0x00000000   Number         0  stm32f4xx_ll_adc.o ABSOLUTE
    Low_Layer_Library\\stm32f4xx_ll_dma.c    0x00000000   Number         0  stm32f4xx_ll_dma.o ABSOLUTE
    Low_Layer_Library\\stm32f4xx_ll_exti.c   0x00000000   Number         0  stm32f4xx_ll_exti.o ABSOLUTE
    Low_Layer_Library\\stm32f4xx_ll_gpio.c   0x00000000   Number         0  stm32f4xx_ll_gpio.o ABSOLUTE
    Low_Layer_Library\\stm32f4xx_ll_i2c.c    0x00000000   Number         0  stm32f4xx_ll_i2c.o ABSOLUTE
    Low_Layer_Library\\stm32f4xx_ll_pwr.c    0x00000000   Number         0  stm32f4xx_ll_pwr.o ABSOLUTE
    Low_Layer_Library\\stm32f4xx_ll_rcc.c    0x00000000   Number         0  stm32f4xx_ll_rcc.o ABSOLUTE
    Low_Layer_Library\\stm32f4xx_ll_rtc.c    0x00000000   Number         0  stm32f4xx_ll_rtc.o ABSOLUTE
    Low_Layer_Library\\stm32f4xx_ll_spi.c    0x00000000   Number         0  stm32f4xx_ll_spi.o ABSOLUTE
    Low_Layer_Library\\stm32f4xx_ll_tim.c    0x00000000   Number         0  stm32f4xx_ll_tim.o ABSOLUTE
    Low_Layer_Library\\stm32f4xx_ll_usart.c  0x00000000   Number         0  stm32f4xx_ll_usart.o ABSOLUTE
    Low_Layer_Library\\stm32f4xx_ll_utils.c  0x00000000   Number         0  stm32f4xx_ll_utils.o ABSOLUTE
    Low_Layer_Library\stm32f4xx_ll_adc.c     0x00000000   Number         0  stm32f4xx_ll_adc.o ABSOLUTE
    Low_Layer_Library\stm32f4xx_ll_dma.c     0x00000000   Number         0  stm32f4xx_ll_dma.o ABSOLUTE
    Low_Layer_Library\stm32f4xx_ll_exti.c    0x00000000   Number         0  stm32f4xx_ll_exti.o ABSOLUTE
    Low_Layer_Library\stm32f4xx_ll_gpio.c    0x00000000   Number         0  stm32f4xx_ll_gpio.o ABSOLUTE
    Low_Layer_Library\stm32f4xx_ll_i2c.c     0x00000000   Number         0  stm32f4xx_ll_i2c.o ABSOLUTE
    Low_Layer_Library\stm32f4xx_ll_pwr.c     0x00000000   Number         0  stm32f4xx_ll_pwr.o ABSOLUTE
    Low_Layer_Library\stm32f4xx_ll_rcc.c     0x00000000   Number         0  stm32f4xx_ll_rcc.o ABSOLUTE
    Low_Layer_Library\stm32f4xx_ll_rtc.c     0x00000000   Number         0  stm32f4xx_ll_rtc.o ABSOLUTE
    Low_Layer_Library\stm32f4xx_ll_spi.c     0x00000000   Number         0  stm32f4xx_ll_spi.o ABSOLUTE
    Low_Layer_Library\stm32f4xx_ll_tim.c     0x00000000   Number         0  stm32f4xx_ll_tim.o ABSOLUTE
    Low_Layer_Library\stm32f4xx_ll_usart.c   0x00000000   Number         0  stm32f4xx_ll_usart.o ABSOLUTE
    Low_Layer_Library\stm32f4xx_ll_utils.c   0x00000000   Number         0  stm32f4xx_ll_utils.o ABSOLUTE
    System_Files\\system_stm32f4xx.c         0x00000000   Number         0  system_stm32f4xx.o ABSOLUTE
    System_Files\startup_stm32f401xe.s       0x00000000   Number         0  startup_stm32f401xe.o ABSOLUTE
    System_Files\system_stm32f4xx.c          0x00000000   Number         0  system_stm32f4xx.o ABSOLUTE
    Time_Delays.c                            0x00000000   Number         0  time_delays.o ABSOLUTE
    Time_Delays.c                            0x00000000   Number         0  time_delays.o ABSOLUTE
    dc.s                                     0x00000000   Number         0  dc.o ABSOLUTE
    main.c                                   0x00000000   Number         0  main.o ABSOLUTE
    main.c                                   0x00000000   Number         0  main.o ABSOLUTE
    stm32f4xx_it.c                           0x00000000   Number         0  stm32f4xx_it.o ABSOLUTE
    stm32f4xx_it.c                           0x00000000   Number         0  stm32f4xx_it.o ABSOLUTE
    RESET                                    0x08000000   Section      404  startup_stm32f401xe.o(RESET)
    !!!main                                  0x08000194   Section        8  __main.o(!!!main)
    !!!scatter                               0x0800019c   Section       52  __scatter.o(!!!scatter)
    !!handler_copy                           0x080001d0   Section       26  __scatter_copy.o(!!handler_copy)
    !!handler_zi                             0x080001ec   Section       28  __scatter_zi.o(!!handler_zi)
    .ARM.Collect$$_printf_percent$$00000000  0x08000208   Section        0  _printf_percent.o(.ARM.Collect$$_printf_percent$$00000000)
    .ARM.Collect$$_printf_percent$$0000000C  0x08000208   Section        6  _printf_x.o(.ARM.Collect$$_printf_percent$$0000000C)
    .ARM.Collect$$_printf_percent$$00000014  0x0800020e   Section        6  _printf_s.o(.ARM.Collect$$_printf_percent$$00000014)
    .ARM.Collect$$_printf_percent$$00000017  0x08000214   Section        4  _printf_percent_end.o(.ARM.Collect$$_printf_percent$$00000017)
    .ARM.Collect$$libinit$$00000000          0x08000218   Section        2  libinit.o(.ARM.Collect$$libinit$$00000000)
    .ARM.Collect$$libinit$$00000001          0x0800021a   Section        4  libinit2.o(.ARM.Collect$$libinit$$00000001)
    .ARM.Collect$$libinit$$00000004          0x0800021e   Section        0  libinit2.o(.ARM.Collect$$libinit$$00000004)
    .ARM.Collect$$libinit$$0000000A          0x0800021e   Section        0  libinit2.o(.ARM.Collect$$libinit$$0000000A)
    .ARM.Collect$$libinit$$0000000C          0x0800021e   Section        0  libinit2.o(.ARM.Collect$$libinit$$0000000C)
    .ARM.Collect$$libinit$$0000000E          0x0800021e   Section        0  libinit2.o(.ARM.Collect$$libinit$$0000000E)
    .ARM.Collect$$libinit$$00000011          0x0800021e   Section        0  libinit2.o(.ARM.Collect$$libinit$$00000011)
    .ARM.Collect$$libinit$$00000013          0x0800021e   Section        0  libinit2.o(.ARM.Collect$$libinit$$00000013)
    .ARM.Collect$$libinit$$00000015          0x0800021e   Section        0  libinit2.o(.ARM.Collect$$libinit$$00000015)
    .ARM.Collect$$libinit$$00000017          0x0800021e   Section        0  libinit2.o(.ARM.Collect$$libinit$$00000017)
    .ARM.Collect$$libinit$$00000019          0x0800021e   Section        0  libinit2.o(.ARM.Collect$$libinit$$00000019)
    .ARM.Collect$$libinit$$0000001B          0x0800021e   Section        0  libinit2.o(.ARM.Collect$$libinit$$0000001B)
    .ARM.Collect$$libinit$$0000001D          0x0800021e   Section        0  libinit2.o(.ARM.Collect$$libinit$$0000001D)
    .ARM.Collect$$libinit$$0000001F          0x0800021e   Section        0  libinit2.o(.ARM.Collect$$libinit$$0000001F)
    .ARM.Collect$$libinit$$00000021          0x0800021e   Section        0  libinit2.o(.ARM.Collect$$libinit$$00000021)
    .ARM.Collect$$libinit$$00000023          0x0800021e   Section        0  libinit2.o(.ARM.Collect$$libinit$$00000023)
    .ARM.Collect$$libinit$$00000025          0x0800021e   Section        0  libinit2.o(.ARM.Collect$$libinit$$00000025)
    .ARM.Collect$$libinit$$0000002C          0x0800021e   Section        0  libinit2.o(.ARM.Collect$$libinit$$0000002C)
    .ARM.Collect$$libinit$$0000002E          0x0800021e   Section        0  libinit2.o(.ARM.Collect$$libinit$$0000002E)
    .ARM.Collect$$libinit$$00000030          0x0800021e   Section        0  libinit2.o(.ARM.Collect$$libinit$$00000030)
    .ARM.Collect$$libinit$$00000032          0x0800021e   Section        0  libinit2.o(.ARM.Collect$$libinit$$00000032)
    .ARM.Collect$$libinit$$00000033          0x0800021e   Section        2  libinit2.o(.ARM.Collect$$libinit$$00000033)
    .ARM.Collect$$libshutdown$$00000000      0x08000220   Section        2  libshutdown.o(.ARM.Collect$$libshutdown$$00000000)
    .ARM.Collect$$libshutdown$$00000002      0x08000222   Section        0  libshutdown2.o(.ARM.Collect$$libshutdown$$00000002)
    .ARM.Collect$$libshutdown$$00000004      0x08000222   Section        0  libshutdown2.o(.ARM.Collect$$libshutdown$$00000004)
    .ARM.Collect$$libshutdown$$00000006      0x08000222   Section        0  libshutdown2.o(.ARM.Collect$$libshutdown$$00000006)
    .ARM.Collect$$libshutdown$$00000009      0x08000222   Section        0  libshutdown2.o(.ARM.Collect$$libshutdown$$00000009)
    .ARM.Collect$$libshutdown$$0000000C      0x08000222   Section        0  libshutdown2.o(.ARM.Collect$$libshutdown$$0000000C)
    .ARM.Collect$$libshutdown$$0000000E      0x08000222   Section        0  libshutdown2.o(.ARM.Collect$$libshutdown$$0000000E)
    .ARM.Collect$$libshutdown$$00000011      0x08000222   Section        0  libshutdown2.o(.ARM.Collect$$libshutdown$$00000011)
    .ARM.Collect$$libshutdown$$00000012      0x08000222   Section        2  libshutdown2.o(.ARM.Collect$$libshutdown$$00000012)
    .ARM.Collect$$rtentry$$00000000          0x08000224   Section        0  __rtentry.o(.ARM.Collect$$rtentry$$00000000)
    .ARM.Collect$$rtentry$$00000002          0x08000224   Section        0  __rtentry2.o(.ARM.Collect$$rtentry$$00000002)
    .ARM.Collect$$rtentry$$00000004          0x08000224   Section        6  __rtentry4.o(.ARM.Collect$$rtentry$$00000004)
    .ARM.Collect$$rtentry$$00000009          0x0800022a   Section        0  __rtentry2.o(.ARM.Collect$$rtentry$$00000009)
    .ARM.Collect$$rtentry$$0000000A          0x0800022a   Section        4  __rtentry2.o(.ARM.Collect$$rtentry$$0000000A)
    .ARM.Collect$$rtentry$$0000000C          0x0800022e   Section        0  __rtentry2.o(.ARM.Collect$$rtentry$$0000000C)
    .ARM.Collect$$rtentry$$0000000D          0x0800022e   Section        8  __rtentry2.o(.ARM.Collect$$rtentry$$0000000D)
    .ARM.Collect$$rtexit$$00000000           0x08000236   Section        2  rtexit.o(.ARM.Collect$$rtexit$$00000000)
    .ARM.Collect$$rtexit$$00000002           0x08000238   Section        0  rtexit2.o(.ARM.Collect$$rtexit$$00000002)
    .ARM.Collect$$rtexit$$00000003           0x08000238   Section        4  rtexit2.o(.ARM.Collect$$rtexit$$00000003)
    .ARM.Collect$$rtexit$$00000004           0x0800023c   Section        6  rtexit2.o(.ARM.Collect$$rtexit$$00000004)
    .text                                    0x08000244   Section       64  startup_stm32f401xe.o(.text)
    $v0                                      0x08000244   Number         0  startup_stm32f401xe.o(.text)
    .text                                    0x08000284   Section        0  noretval__2sprintf.o(.text)
    .text                                    0x080002ac   Section        0  _printf_str.o(.text)
    .text                                    0x08000300   Section        0  _printf_hex_int.o(.text)
    .text                                    0x08000358   Section        0  __printf_wp.o(.text)
    .text                                    0x08000466   Section        0  strlen.o(.text)
    .text                                    0x080004a4   Section      100  rt_memcpy_w.o(.text)
    .text                                    0x08000508   Section       68  rt_memclr.o(.text)
    .text                                    0x0800054c   Section        0  heapauxi.o(.text)
    .text                                    0x08000552   Section        0  _printf_intcommon.o(.text)
    .text                                    0x08000604   Section        0  _printf_char_common.o(.text)
    _printf_input_char                       0x08000605   Thumb Code    10  _printf_char_common.o(.text)
    .text                                    0x08000634   Section        0  _sputc.o(.text)
    .text                                    0x0800063e   Section        0  _printf_char.o(.text)
    .text                                    0x0800066a   Section       78  rt_memclr_w.o(.text)
    .text                                    0x080006b8   Section       74  sys_stackheap_outer.o(.text)
    .text                                    0x08000702   Section        0  exit.o(.text)
    .text                                    0x08000714   Section        8  libspace.o(.text)
    .text                                    0x0800071c   Section        0  sys_exit.o(.text)
    .text                                    0x08000728   Section        2  use_no_semi.o(.text)
    .text                                    0x0800072a   Section        0  indicate_semi.o(.text)
    i.Activate_SPI1                          0x0800072c   Section        0  lcd_display.o(i.Activate_SPI1)
    i.BusFault_Handler                       0x08000744   Section        0  stm32f4xx_it.o(i.BusFault_Handler)
    i.Chip_Select_Pin                        0x08000748   Section        0  lcd_display.o(i.Chip_Select_Pin)
    i.Clear_Screen                           0x08000768   Section        0  lcd_display.o(i.Clear_Screen)
    i.Configure_LCD_Pins                     0x08000780   Section        0  lcd_display.o(i.Configure_LCD_Pins)
    i.Configure_SPI1                         0x08000870   Section        0  lcd_display.o(i.Configure_SPI1)
    i.Copy_Data_Buffer_To_LCD                0x0800091c   Section        0  lcd_display.o(i.Copy_Data_Buffer_To_LCD)
    i.DebugMon_Handler                       0x080009dc   Section        0  stm32f4xx_it.o(i.DebugMon_Handler)
    i.HardFault_Handler                      0x080009de   Section        0  stm32f4xx_it.o(i.HardFault_Handler)
    i.Initialise_LCD_Controller              0x080009e2   Section        0  lcd_display.o(i.Initialise_LCD_Controller)
    i.InstructionOrData                      0x08000a48   Section        0  lcd_display.o(i.InstructionOrData)
    i.LL_AHB1_GRP1_EnableClock               0x08000a78   Section        0  lcd_display.o(i.LL_AHB1_GRP1_EnableClock)
    LL_AHB1_GRP1_EnableClock                 0x08000a79   Thumb Code    24  lcd_display.o(i.LL_AHB1_GRP1_EnableClock)
    i.LL_AHB1_GRP1_EnableClock               0x08000a94   Section        0  main.o(i.LL_AHB1_GRP1_EnableClock)
    LL_AHB1_GRP1_EnableClock                 0x08000a95   Thumb Code    24  main.o(i.LL_AHB1_GRP1_EnableClock)
    i.LL_GPIO_IsInputPinSet                  0x08000ab0   Section        0  main.o(i.LL_GPIO_IsInputPinSet)
    LL_GPIO_IsInputPinSet                    0x08000ab1   Thumb Code    18  main.o(i.LL_GPIO_IsInputPinSet)
    i.LL_GPIO_ResetOutputPin                 0x08000ac2   Section        0  lcd_display.o(i.LL_GPIO_ResetOutputPin)
    LL_GPIO_ResetOutputPin                   0x08000ac3   Thumb Code     6  lcd_display.o(i.LL_GPIO_ResetOutputPin)
    i.LL_GPIO_SetAFPin_0_7                   0x08000ac8   Section        0  lcd_display.o(i.LL_GPIO_SetAFPin_0_7)
    LL_GPIO_SetAFPin_0_7                     0x08000ac9   Thumb Code    40  lcd_display.o(i.LL_GPIO_SetAFPin_0_7)
    i.LL_GPIO_SetAFPin_8_15                  0x08000af0   Section        0  main.o(i.LL_GPIO_SetAFPin_8_15)
    LL_GPIO_SetAFPin_8_15                    0x08000af1   Thumb Code    44  main.o(i.LL_GPIO_SetAFPin_8_15)
    i.LL_GPIO_SetOutputPin                   0x08000b1c   Section        0  lcd_display.o(i.LL_GPIO_SetOutputPin)
    LL_GPIO_SetOutputPin                     0x08000b1d   Thumb Code     4  lcd_display.o(i.LL_GPIO_SetOutputPin)
    i.LL_GPIO_SetPinMode                     0x08000b20   Section        0  lcd_display.o(i.LL_GPIO_SetPinMode)
    LL_GPIO_SetPinMode                       0x08000b21   Thumb Code    40  lcd_display.o(i.LL_GPIO_SetPinMode)
    i.LL_GPIO_SetPinMode                     0x08000b48   Section        0  main.o(i.LL_GPIO_SetPinMode)
    LL_GPIO_SetPinMode                       0x08000b49   Thumb Code    40  main.o(i.LL_GPIO_SetPinMode)
    i.LL_GPIO_SetPinOutputType               0x08000b70   Section        0  main.o(i.LL_GPIO_SetPinOutputType)
    LL_GPIO_SetPinOutputType                 0x08000b71   Thumb Code    16  main.o(i.LL_GPIO_SetPinOutputType)
    i.LL_GPIO_SetPinPull                     0x08000b80   Section        0  lcd_display.o(i.LL_GPIO_SetPinPull)
    LL_GPIO_SetPinPull                       0x08000b81   Thumb Code    40  lcd_display.o(i.LL_GPIO_SetPinPull)
    i.LL_GPIO_SetPinPull                     0x08000ba8   Section        0  main.o(i.LL_GPIO_SetPinPull)
    LL_GPIO_SetPinPull                       0x08000ba9   Thumb Code    40  main.o(i.LL_GPIO_SetPinPull)
    i.LL_GPIO_SetPinSpeed                    0x08000bd0   Section        0  lcd_display.o(i.LL_GPIO_SetPinSpeed)
    LL_GPIO_SetPinSpeed                      0x08000bd1   Thumb Code    40  lcd_display.o(i.LL_GPIO_SetPinSpeed)
    i.LL_I2C_AcknowledgeNextData             0x08000bf8   Section        0  main.o(i.LL_I2C_AcknowledgeNextData)
    LL_I2C_AcknowledgeNextData               0x08000bf9   Thumb Code    12  main.o(i.LL_I2C_AcknowledgeNextData)
    i.LL_I2C_ClearFlag_ADDR                  0x08000c04   Section        0  main.o(i.LL_I2C_ClearFlag_ADDR)
    LL_I2C_ClearFlag_ADDR                    0x08000c05   Thumb Code    16  main.o(i.LL_I2C_ClearFlag_ADDR)
    i.LL_I2C_ClearFlag_AF                    0x08000c14   Section        0  main.o(i.LL_I2C_ClearFlag_AF)
    LL_I2C_ClearFlag_AF                      0x08000c15   Thumb Code    10  main.o(i.LL_I2C_ClearFlag_AF)
    i.LL_I2C_ConfigSpeed                     0x08000c20   Section        0  main.o(i.LL_I2C_ConfigSpeed)
    LL_I2C_ConfigSpeed                       0x08000c21   Thumb Code   178  main.o(i.LL_I2C_ConfigSpeed)
    i.LL_I2C_GenerateStartCondition          0x08000cdc   Section        0  main.o(i.LL_I2C_GenerateStartCondition)
    LL_I2C_GenerateStartCondition            0x08000cdd   Thumb Code    10  main.o(i.LL_I2C_GenerateStartCondition)
    i.LL_I2C_GenerateStopCondition           0x08000ce6   Section        0  main.o(i.LL_I2C_GenerateStopCondition)
    LL_I2C_GenerateStopCondition             0x08000ce7   Thumb Code    10  main.o(i.LL_I2C_GenerateStopCondition)
    i.LL_I2C_IsActiveFlag_ADDR               0x08000cf0   Section        0  main.o(i.LL_I2C_IsActiveFlag_ADDR)
    LL_I2C_IsActiveFlag_ADDR                 0x08000cf1   Thumb Code    10  main.o(i.LL_I2C_IsActiveFlag_ADDR)
    i.LL_I2C_IsActiveFlag_RXNE               0x08000cfa   Section        0  main.o(i.LL_I2C_IsActiveFlag_RXNE)
    LL_I2C_IsActiveFlag_RXNE                 0x08000cfb   Thumb Code    10  main.o(i.LL_I2C_IsActiveFlag_RXNE)
    i.LL_I2C_IsActiveFlag_SB                 0x08000d04   Section        0  main.o(i.LL_I2C_IsActiveFlag_SB)
    LL_I2C_IsActiveFlag_SB                   0x08000d05   Thumb Code    10  main.o(i.LL_I2C_IsActiveFlag_SB)
    i.LL_I2C_IsActiveFlag_TXE                0x08000d0e   Section        0  main.o(i.LL_I2C_IsActiveFlag_TXE)
    LL_I2C_IsActiveFlag_TXE                  0x08000d0f   Thumb Code    10  main.o(i.LL_I2C_IsActiveFlag_TXE)
    i.LL_I2C_ReceiveData8                    0x08000d18   Section        0  main.o(i.LL_I2C_ReceiveData8)
    LL_I2C_ReceiveData8                      0x08000d19   Thumb Code     8  main.o(i.LL_I2C_ReceiveData8)
    i.LL_I2C_TransmitData8                   0x08000d20   Section        0  main.o(i.LL_I2C_TransmitData8)
    LL_I2C_TransmitData8                     0x08000d21   Thumb Code    12  main.o(i.LL_I2C_TransmitData8)
    i.LL_mDelay                              0x08000d2c   Section        0  stm32f4xx_ll_utils.o(i.LL_mDelay)
    i.MemManage_Handler                      0x08000d54   Section        0  stm32f4xx_it.o(i.MemManage_Handler)
    i.NMI_Handler                            0x08000d58   Section        0  stm32f4xx_it.o(i.NMI_Handler)
    i.PendSV_Handler                         0x08000d5a   Section        0  stm32f4xx_it.o(i.PendSV_Handler)
    i.Reset_Display_Pin                      0x08000d5c   Section        0  lcd_display.o(i.Reset_Display_Pin)
    i.SVC_Handler                            0x08000d7c   Section        0  stm32f4xx_it.o(i.SVC_Handler)
    i.Send_SPI_Byte                          0x08000d80   Section        0  lcd_display.o(i.Send_SPI_Byte)
    i.SysTick_Config                         0x08000da0   Section        0  time_delays.o(i.SysTick_Config)
    SysTick_Config                           0x08000da1   Thumb Code    74  time_delays.o(i.SysTick_Config)
    i.SysTick_Config_MCE2                    0x08000df4   Section        0  time_delays.o(i.SysTick_Config_MCE2)
    i.SysTick_Handler                        0x08000e18   Section        0  time_delays.o(i.SysTick_Handler)
    i.SystemClock_Config                     0x08000e28   Section        0  clk_config.o(i.SystemClock_Config)
    i.SystemInit                             0x08000f38   Section        0  system_stm32f4xx.o(i.SystemInit)
    i.UsageFault_Handler                     0x08000f9c   Section        0  stm32f4xx_it.o(i.UsageFault_Handler)
    i.Write_Command_To_LCD                   0x08000fa0   Section        0  lcd_display.o(i.Write_Command_To_LCD)
    i.Write_Data_To_LCD                      0x08000fbe   Section        0  lcd_display.o(i.Write_Data_To_LCD)
    i._is_digit                              0x08000fdc   Section        0  __printf_wp.o(i._is_digit)
    i.calculate_checksum                     0x08000fea   Section        0  main.o(i.calculate_checksum)
    i.character                              0x0800101c   Section        0  lcd_display.o(i.character)
    i.height                                 0x08001114   Section        0  lcd_display.o(i.height)
    i.joystick_centre                        0x08001130   Section        0  main.o(i.joystick_centre)
    i.joystick_down                          0x08001140   Section        0  main.o(i.joystick_down)
    i.joystick_left                          0x08001150   Section        0  main.o(i.joystick_left)
    i.joystick_right                         0x08001160   Section        0  main.o(i.joystick_right)
    i.joystick_up                            0x08001170   Section        0  main.o(i.joystick_up)
    i.locate                                 0x08001180   Section        0  lcd_display.o(i.locate)
    i.main                                   0x08001194   Section        0  main.o(i.main)
    i.pixel                                  0x08001580   Section        0  lcd_display.o(i.pixel)
    i.put_char                               0x08001614   Section        0  lcd_display.o(i.put_char)
    i.put_checksum_into_packet               0x08001670   Section        0  main.o(i.put_checksum_into_packet)
    i.put_string                             0x08001688   Section        0  lcd_display.o(i.put_string)
    i.read_from_acc                          0x080016d0   Section        0  main.o(i.read_from_acc)
    i.read_multiple_bytes                    0x0800176c   Section        0  main.o(i.read_multiple_bytes)
    i.return_checksum                        0x08001850   Section        0  main.o(i.return_checksum)
    i.set_font                               0x08001860   Section        0  lcd_display.o(i.set_font)
    i.setup_peripherals                      0x0800186c   Section        0  main.o(i.setup_peripherals)
    i.width                                  0x080019b8   Section        0  lcd_display.o(i.width)
    i.write_in_page_mode                     0x080019d4   Section        0  main.o(i.write_in_page_mode)
    x$fpl$fpinit                             0x08001ab8   Section       10  fpinit.o(x$fpl$fpinit)
    $v0                                      0x08001ab8   Number         0  fpinit.o(x$fpl$fpinit)
    .constdata                               0x08001ac4   Section    13560  main.o(.constdata)
    STREAM_OFFSET_TAB                        0x08001ac4   Data           8  main.o(.constdata)
    OFFSET_TAB_CCMRx                         0x08001acc   Data           7  main.o(.constdata)
    SHIFT_TAB_OCxx                           0x08001ad3   Data           7  main.o(.constdata)
    SHIFT_TAB_ICxx                           0x08001ada   Data           7  main.o(.constdata)
    SHIFT_TAB_CCxP                           0x08001ae1   Data           7  main.o(.constdata)
    SHIFT_TAB_OISx                           0x08001ae8   Data           7  main.o(.constdata)
    .constdata                               0x08004fbc   Section       40  _printf_hex_int.o(.constdata)
    uc_hextab                                0x08004fbc   Data          20  _printf_hex_int.o(.constdata)
    lc_hextab                                0x08004fd0   Data          20  _printf_hex_int.o(.constdata)
    .conststring                             0x08004fe4   Section       66  main.o(.conststring)
    .data                                    0x20000000   Section        4  system_stm32f4xx.o(.data)
    .data                                    0x20000004   Section        4  time_delays.o(.data)
    ticks                                    0x20000004   Data           4  time_delays.o(.data)
    .data                                    0x20000008   Section       16  lcd_display.o(.data)
    .bss                                     0x20000018   Section      512  lcd_display.o(.bss)
    .bss                                     0x20000218   Section       96  libspace.o(.bss)
    HEAP                                     0x20000278   Section      512  startup_stm32f401xe.o(HEAP)
    Heap_Mem                                 0x20000278   Data         512  startup_stm32f401xe.o(HEAP)
    STACK                                    0x20000478   Section     1024  startup_stm32f401xe.o(STACK)
    Stack_Mem                                0x20000478   Data        1024  startup_stm32f401xe.o(STACK)
    __initial_sp                             0x20000878   Data           0  startup_stm32f401xe.o(STACK)

    Global Symbols

    Symbol Name                              Value     Ov Type        Size  Object(Section)

    BuildAttributes$$THM_ISAv4$E$P$D$K$B$S$7EM$VFPi3$EXTD16$VFPS$VFMA$PE$A:L22UL41UL21$X:L11$S22US41US21$IEEE1$IW$USESV6$~STKCKD$USESV7$~SHL$OSPACE$ROPI$EBA8$UX$STANDARDLIB$REQ8$PRES8$EABIv2 0x00000000   Number         0  anon$$obj.o ABSOLUTE
    __ARM_use_no_argv                        0x00000000   Number         0  main.o ABSOLUTE
    _printf_flags                            0x00000000   Number         0  printf_stubs.o ABSOLUTE
    _printf_return_value                     0x00000000   Number         0  printf_stubs.o ABSOLUTE
    _printf_sizespec                         0x00000000   Number         0  printf_stubs.o ABSOLUTE
    _printf_widthprec                        0x00000000   Number         0  printf_stubs.o ABSOLUTE
    __ARM_exceptions_init                     - Undefined Weak Reference
    __alloca_initialize                       - Undefined Weak Reference
    __arm_fini_                               - Undefined Weak Reference
    __arm_preinit_                            - Undefined Weak Reference
    __cpp_initialize__aeabi_                  - Undefined Weak Reference
    __cxa_finalize                            - Undefined Weak Reference
    __rt_locale                               - Undefined Weak Reference
    __sigvec_lookup                           - Undefined Weak Reference
    _atexit_init                              - Undefined Weak Reference
    _call_atexit_fns                          - Undefined Weak Reference
    _clock_init                               - Undefined Weak Reference
    _fp_trap_init                             - Undefined Weak Reference
    _fp_trap_shutdown                         - Undefined Weak Reference
    _get_lc_collate                           - Undefined Weak Reference
    _get_lc_ctype                             - Undefined Weak Reference
    _get_lc_monetary                          - Undefined Weak Reference
    _get_lc_numeric                           - Undefined Weak Reference
    _get_lc_time                              - Undefined Weak Reference
    _getenv_init                              - Undefined Weak Reference
    _handle_redirection                       - Undefined Weak Reference
    _init_alloc                               - Undefined Weak Reference
    _init_user_alloc                          - Undefined Weak Reference
    _initio                                   - Undefined Weak Reference
    _printf_mbtowc                            - Undefined Weak Reference
    _printf_post_padding                      - Undefined Weak Reference
    _printf_pre_padding                       - Undefined Weak Reference
    _printf_truncate_unsigned                 - Undefined Weak Reference
    _rand_init                                - Undefined Weak Reference
    _signal_finish                            - Undefined Weak Reference
    _signal_init                              - Undefined Weak Reference
    _terminate_alloc                          - Undefined Weak Reference
    _terminate_user_alloc                     - Undefined Weak Reference
    _terminateio                              - Undefined Weak Reference
    __Vectors_Size                           0x00000194   Number         0  startup_stm32f401xe.o ABSOLUTE
    __Vectors                                0x08000000   Data           4  startup_stm32f401xe.o(RESET)
    __Vectors_End                            0x08000194   Data           0  startup_stm32f401xe.o(RESET)
    __main                                   0x08000195   Thumb Code     8  __main.o(!!!main)
    __scatterload                            0x0800019d   Thumb Code     0  __scatter.o(!!!scatter)
    __scatterload_rt2                        0x0800019d   Thumb Code    44  __scatter.o(!!!scatter)
    __scatterload_rt2_thumb_only             0x0800019d   Thumb Code     0  __scatter.o(!!!scatter)
    __scatterload_null                       0x080001ab   Thumb Code     0  __scatter.o(!!!scatter)
    __scatterload_copy                       0x080001d1   Thumb Code    26  __scatter_copy.o(!!handler_copy)
    __scatterload_zeroinit                   0x080001ed   Thumb Code    28  __scatter_zi.o(!!handler_zi)
    _printf_percent                          0x08000209   Thumb Code     0  _printf_percent.o(.ARM.Collect$$_printf_percent$$00000000)
    _printf_x                                0x08000209   Thumb Code     0  _printf_x.o(.ARM.Collect$$_printf_percent$$0000000C)
    _printf_s                                0x0800020f   Thumb Code     0  _printf_s.o(.ARM.Collect$$_printf_percent$$00000014)
    _printf_percent_end                      0x08000215   Thumb Code     0  _printf_percent_end.o(.ARM.Collect$$_printf_percent$$00000017)
    __rt_lib_init                            0x08000219   Thumb Code     0  libinit.o(.ARM.Collect$$libinit$$00000000)
    __rt_lib_init_fp_1                       0x0800021b   Thumb Code     0  libinit2.o(.ARM.Collect$$libinit$$00000001)
    __rt_lib_init_alloca_1                   0x0800021f   Thumb Code     0  libinit2.o(.ARM.Collect$$libinit$$0000002E)
    __rt_lib_init_argv_1                     0x0800021f   Thumb Code     0  libinit2.o(.ARM.Collect$$libinit$$0000002C)
    __rt_lib_init_atexit_1                   0x0800021f   Thumb Code     0  libinit2.o(.ARM.Collect$$libinit$$0000001B)
    __rt_lib_init_clock_1                    0x0800021f   Thumb Code     0  libinit2.o(.ARM.Collect$$libinit$$00000021)
    __rt_lib_init_cpp_1                      0x0800021f   Thumb Code     0  libinit2.o(.ARM.Collect$$libinit$$00000032)
    __rt_lib_init_exceptions_1               0x0800021f   Thumb Code     0  libinit2.o(.ARM.Collect$$libinit$$00000030)
    __rt_lib_init_fp_trap_1                  0x0800021f   Thumb Code     0  libinit2.o(.ARM.Collect$$libinit$$0000001F)
    __rt_lib_init_getenv_1                   0x0800021f   Thumb Code     0  libinit2.o(.ARM.Collect$$libinit$$00000023)
    __rt_lib_init_heap_1                     0x0800021f   Thumb Code     0  libinit2.o(.ARM.Collect$$libinit$$0000000A)
    __rt_lib_init_lc_collate_1               0x0800021f   Thumb Code     0  libinit2.o(.ARM.Collect$$libinit$$00000011)
    __rt_lib_init_lc_ctype_1                 0x0800021f   Thumb Code     0  libinit2.o(.ARM.Collect$$libinit$$00000013)
    __rt_lib_init_lc_monetary_1              0x0800021f   Thumb Code     0  libinit2.o(.ARM.Collect$$libinit$$00000015)
    __rt_lib_init_lc_numeric_1               0x0800021f   Thumb Code     0  libinit2.o(.ARM.Collect$$libinit$$00000017)
    __rt_lib_init_lc_time_1                  0x0800021f   Thumb Code     0  libinit2.o(.ARM.Collect$$libinit$$00000019)
    __rt_lib_init_preinit_1                  0x0800021f   Thumb Code     0  libinit2.o(.ARM.Collect$$libinit$$00000004)
    __rt_lib_init_rand_1                     0x0800021f   Thumb Code     0  libinit2.o(.ARM.Collect$$libinit$$0000000E)
    __rt_lib_init_return                     0x0800021f   Thumb Code     0  libinit2.o(.ARM.Collect$$libinit$$00000033)
    __rt_lib_init_signal_1                   0x0800021f   Thumb Code     0  libinit2.o(.ARM.Collect$$libinit$$0000001D)
    __rt_lib_init_stdio_1                    0x0800021f   Thumb Code     0  libinit2.o(.ARM.Collect$$libinit$$00000025)
    __rt_lib_init_user_alloc_1               0x0800021f   Thumb Code     0  libinit2.o(.ARM.Collect$$libinit$$0000000C)
    __rt_lib_shutdown                        0x08000221   Thumb Code     0  libshutdown.o(.ARM.Collect$$libshutdown$$00000000)
    __rt_lib_shutdown_cpp_1                  0x08000223   Thumb Code     0  libshutdown2.o(.ARM.Collect$$libshutdown$$00000004)
    __rt_lib_shutdown_fini_1                 0x08000223   Thumb Code     0  libshutdown2.o(.ARM.Collect$$libshutdown$$00000002)
    __rt_lib_shutdown_fp_trap_1              0x08000223   Thumb Code     0  libshutdown2.o(.ARM.Collect$$libshutdown$$00000009)
    __rt_lib_shutdown_heap_1                 0x08000223   Thumb Code     0  libshutdown2.o(.ARM.Collect$$libshutdown$$00000011)
    __rt_lib_shutdown_return                 0x08000223   Thumb Code     0  libshutdown2.o(.ARM.Collect$$libshutdown$$00000012)
    __rt_lib_shutdown_signal_1               0x08000223   Thumb Code     0  libshutdown2.o(.ARM.Collect$$libshutdown$$0000000C)
    __rt_lib_shutdown_stdio_1                0x08000223   Thumb Code     0  libshutdown2.o(.ARM.Collect$$libshutdown$$00000006)
    __rt_lib_shutdown_user_alloc_1           0x08000223   Thumb Code     0  libshutdown2.o(.ARM.Collect$$libshutdown$$0000000E)
    __rt_entry                               0x08000225   Thumb Code     0  __rtentry.o(.ARM.Collect$$rtentry$$00000000)
    __rt_entry_presh_1                       0x08000225   Thumb Code     0  __rtentry2.o(.ARM.Collect$$rtentry$$00000002)
    __rt_entry_sh                            0x08000225   Thumb Code     0  __rtentry4.o(.ARM.Collect$$rtentry$$00000004)
    __rt_entry_li                            0x0800022b   Thumb Code     0  __rtentry2.o(.ARM.Collect$$rtentry$$0000000A)
    __rt_entry_postsh_1                      0x0800022b   Thumb Code     0  __rtentry2.o(.ARM.Collect$$rtentry$$00000009)
    __rt_entry_main                          0x0800022f   Thumb Code     0  __rtentry2.o(.ARM.Collect$$rtentry$$0000000D)
    __rt_entry_postli_1                      0x0800022f   Thumb Code     0  __rtentry2.o(.ARM.Collect$$rtentry$$0000000C)
    __rt_exit                                0x08000237   Thumb Code     0  rtexit.o(.ARM.Collect$$rtexit$$00000000)
    __rt_exit_ls                             0x08000239   Thumb Code     0  rtexit2.o(.ARM.Collect$$rtexit$$00000003)
    __rt_exit_prels_1                        0x08000239   Thumb Code     0  rtexit2.o(.ARM.Collect$$rtexit$$00000002)
    __rt_exit_exit                           0x0800023d   Thumb Code     0  rtexit2.o(.ARM.Collect$$rtexit$$00000004)
    Reset_Handler                            0x08000245   Thumb Code     8  startup_stm32f401xe.o(.text)
    ADC_IRQHandler                           0x0800025f   Thumb Code     0  startup_stm32f401xe.o(.text)
    DMA1_Stream0_IRQHandler                  0x0800025f   Thumb Code     0  startup_stm32f401xe.o(.text)
    DMA1_Stream1_IRQHandler                  0x0800025f   Thumb Code     0  startup_stm32f401xe.o(.text)
    DMA1_Stream2_IRQHandler                  0x0800025f   Thumb Code     0  startup_stm32f401xe.o(.text)
    DMA1_Stream3_IRQHandler                  0x0800025f   Thumb Code     0  startup_stm32f401xe.o(.text)
    DMA1_Stream4_IRQHandler                  0x0800025f   Thumb Code     0  startup_stm32f401xe.o(.text)
    DMA1_Stream5_IRQHandler                  0x0800025f   Thumb Code     0  startup_stm32f401xe.o(.text)
    DMA1_Stream6_IRQHandler                  0x0800025f   Thumb Code     0  startup_stm32f401xe.o(.text)
    DMA1_Stream7_IRQHandler                  0x0800025f   Thumb Code     0  startup_stm32f401xe.o(.text)
    DMA2_Stream0_IRQHandler                  0x0800025f   Thumb Code     0  startup_stm32f401xe.o(.text)
    DMA2_Stream1_IRQHandler                  0x0800025f   Thumb Code     0  startup_stm32f401xe.o(.text)
    DMA2_Stream2_IRQHandler                  0x0800025f   Thumb Code     0  startup_stm32f401xe.o(.text)
    DMA2_Stream3_IRQHandler                  0x0800025f   Thumb Code     0  startup_stm32f401xe.o(.text)
    DMA2_Stream4_IRQHandler                  0x0800025f   Thumb Code     0  startup_stm32f401xe.o(.text)
    DMA2_Stream5_IRQHandler                  0x0800025f   Thumb Code     0  startup_stm32f401xe.o(.text)
    DMA2_Stream6_IRQHandler                  0x0800025f   Thumb Code     0  startup_stm32f401xe.o(.text)
    DMA2_Stream7_IRQHandler                  0x0800025f   Thumb Code     0  startup_stm32f401xe.o(.text)
    EXTI0_IRQHandler                         0x0800025f   Thumb Code     0  startup_stm32f401xe.o(.text)
    EXTI15_10_IRQHandler                     0x0800025f   Thumb Code     0  startup_stm32f401xe.o(.text)
    EXTI1_IRQHandler                         0x0800025f   Thumb Code     0  startup_stm32f401xe.o(.text)
    EXTI2_IRQHandler                         0x0800025f   Thumb Code     0  startup_stm32f401xe.o(.text)
    EXTI3_IRQHandler                         0x0800025f   Thumb Code     0  startup_stm32f401xe.o(.text)
    EXTI4_IRQHandler                         0x0800025f   Thumb Code     0  startup_stm32f401xe.o(.text)
    EXTI9_5_IRQHandler                       0x0800025f   Thumb Code     0  startup_stm32f401xe.o(.text)
    FLASH_IRQHandler                         0x0800025f   Thumb Code     0  startup_stm32f401xe.o(.text)
    FPU_IRQHandler                           0x0800025f   Thumb Code     0  startup_stm32f401xe.o(.text)
    I2C1_ER_IRQHandler                       0x0800025f   Thumb Code     0  startup_stm32f401xe.o(.text)
    I2C1_EV_IRQHandler                       0x0800025f   Thumb Code     0  startup_stm32f401xe.o(.text)
    I2C2_ER_IRQHandler                       0x0800025f   Thumb Code     0  startup_stm32f401xe.o(.text)
    I2C2_EV_IRQHandler                       0x0800025f   Thumb Code     0  startup_stm32f401xe.o(.text)
    I2C3_ER_IRQHandler                       0x0800025f   Thumb Code     0  startup_stm32f401xe.o(.text)
    I2C3_EV_IRQHandler                       0x0800025f   Thumb Code     0  startup_stm32f401xe.o(.text)
    OTG_FS_IRQHandler                        0x0800025f   Thumb Code     0  startup_stm32f401xe.o(.text)
    OTG_FS_WKUP_IRQHandler                   0x0800025f   Thumb Code     0  startup_stm32f401xe.o(.text)
    PVD_IRQHandler                           0x0800025f   Thumb Code     0  startup_stm32f401xe.o(.text)
    RCC_IRQHandler                           0x0800025f   Thumb Code     0  startup_stm32f401xe.o(.text)
    RTC_Alarm_IRQHandler                     0x0800025f   Thumb Code     0  startup_stm32f401xe.o(.text)
    RTC_WKUP_IRQHandler                      0x0800025f   Thumb Code     0  startup_stm32f401xe.o(.text)
    SDIO_IRQHandler                          0x0800025f   Thumb Code     0  startup_stm32f401xe.o(.text)
    SPI1_IRQHandler                          0x0800025f   Thumb Code     0  startup_stm32f401xe.o(.text)
    SPI2_IRQHandler                          0x0800025f   Thumb Code     0  startup_stm32f401xe.o(.text)
    SPI3_IRQHandler                          0x0800025f   Thumb Code     0  startup_stm32f401xe.o(.text)
    SPI4_IRQHandler                          0x0800025f   Thumb Code     0  startup_stm32f401xe.o(.text)
    TAMP_STAMP_IRQHandler                    0x0800025f   Thumb Code     0  startup_stm32f401xe.o(.text)
    TIM1_BRK_TIM9_IRQHandler                 0x0800025f   Thumb Code     0  startup_stm32f401xe.o(.text)
    TIM1_CC_IRQHandler                       0x0800025f   Thumb Code     0  startup_stm32f401xe.o(.text)
    TIM1_TRG_COM_TIM11_IRQHandler            0x0800025f   Thumb Code     0  startup_stm32f401xe.o(.text)
    TIM1_UP_TIM10_IRQHandler                 0x0800025f   Thumb Code     0  startup_stm32f401xe.o(.text)
    TIM2_IRQHandler                          0x0800025f   Thumb Code     0  startup_stm32f401xe.o(.text)
    TIM3_IRQHandler                          0x0800025f   Thumb Code     0  startup_stm32f401xe.o(.text)
    TIM4_IRQHandler                          0x0800025f   Thumb Code     0  startup_stm32f401xe.o(.text)
    TIM5_IRQHandler                          0x0800025f   Thumb Code     0  startup_stm32f401xe.o(.text)
    USART1_IRQHandler                        0x0800025f   Thumb Code     0  startup_stm32f401xe.o(.text)
    USART2_IRQHandler                        0x0800025f   Thumb Code     0  startup_stm32f401xe.o(.text)
    USART6_IRQHandler                        0x0800025f   Thumb Code     0  startup_stm32f401xe.o(.text)
    WWDG_IRQHandler                          0x0800025f   Thumb Code     0  startup_stm32f401xe.o(.text)
    __user_initial_stackheap                 0x08000261   Thumb Code     0  startup_stm32f401xe.o(.text)
    __2sprintf                               0x08000285   Thumb Code    34  noretval__2sprintf.o(.text)
    _printf_str                              0x080002ad   Thumb Code    82  _printf_str.o(.text)
    _printf_int_hex                          0x08000301   Thumb Code    84  _printf_hex_int.o(.text)
    _printf_longlong_hex                     0x08000301   Thumb Code     0  _printf_hex_int.o(.text)
    __printf                                 0x08000359   Thumb Code   270  __printf_wp.o(.text)
    strlen                                   0x08000467   Thumb Code    62  strlen.o(.text)
    __aeabi_memcpy4                          0x080004a5   Thumb Code     0  rt_memcpy_w.o(.text)
    __aeabi_memcpy8                          0x080004a5   Thumb Code     0  rt_memcpy_w.o(.text)
    __rt_memcpy_w                            0x080004a5   Thumb Code   100  rt_memcpy_w.o(.text)
    _memcpy_lastbytes_aligned                0x080004ed   Thumb Code     0  rt_memcpy_w.o(.text)
    __aeabi_memclr                           0x08000509   Thumb Code     0  rt_memclr.o(.text)
    __rt_memclr                              0x08000509   Thumb Code    68  rt_memclr.o(.text)
    _memset                                  0x0800050d   Thumb Code     0  rt_memclr.o(.text)
    __use_two_region_memory                  0x0800054d   Thumb Code     2  heapauxi.o(.text)
    __rt_heap_escrow$2region                 0x0800054f   Thumb Code     2  heapauxi.o(.text)
    __rt_heap_expand$2region                 0x08000551   Thumb Code     2  heapauxi.o(.text)
    _printf_int_common                       0x08000553   Thumb Code   178  _printf_intcommon.o(.text)
    _printf_char_common                      0x0800060f   Thumb Code    32  _printf_char_common.o(.text)
    _sputc                                   0x08000635   Thumb Code    10  _sputc.o(.text)
    _printf_cs_common                        0x0800063f   Thumb Code    20  _printf_char.o(.text)
    _printf_char                             0x08000653   Thumb Code    16  _printf_char.o(.text)
    _printf_string                           0x08000663   Thumb Code     8  _printf_char.o(.text)
    __aeabi_memclr4                          0x0800066b   Thumb Code     0  rt_memclr_w.o(.text)
    __aeabi_memclr8                          0x0800066b   Thumb Code     0  rt_memclr_w.o(.text)
    __rt_memclr_w                            0x0800066b   Thumb Code    78  rt_memclr_w.o(.text)
    _memset_w                                0x0800066f   Thumb Code     0  rt_memclr_w.o(.text)
    __user_setup_stackheap                   0x080006b9   Thumb Code    74  sys_stackheap_outer.o(.text)
    exit                                     0x08000703   Thumb Code    18  exit.o(.text)
    __user_libspace                          0x08000715   Thumb Code     8  libspace.o(.text)
    __user_perproc_libspace                  0x08000715   Thumb Code     0  libspace.o(.text)
    __user_perthread_libspace                0x08000715   Thumb Code     0  libspace.o(.text)
    _sys_exit                                0x0800071d   Thumb Code     8  sys_exit.o(.text)
    __I$use$semihosting                      0x08000729   Thumb Code     0  use_no_semi.o(.text)
    __use_no_semihosting_swi                 0x08000729   Thumb Code     2  use_no_semi.o(.text)
    __semihosting_library_function           0x0800072b   Thumb Code     0  indicate_semi.o(.text)
    Activate_SPI1                            0x0800072d   Thumb Code    18  lcd_display.o(i.Activate_SPI1)
    BusFault_Handler                         0x08000745   Thumb Code     4  stm32f4xx_it.o(i.BusFault_Handler)
    Chip_Select_Pin                          0x08000749   Thumb Code    26  lcd_display.o(i.Chip_Select_Pin)
    Clear_Screen                             0x08000769   Thumb Code    18  lcd_display.o(i.Clear_Screen)
    Configure_LCD_Pins                       0x08000781   Thumb Code   230  lcd_display.o(i.Configure_LCD_Pins)
    Configure_SPI1                           0x08000871   Thumb Code   162  lcd_display.o(i.Configure_SPI1)
    Copy_Data_Buffer_To_LCD                  0x0800091d   Thumb Code   188  lcd_display.o(i.Copy_Data_Buffer_To_LCD)
    DebugMon_Handler                         0x080009dd   Thumb Code     2  stm32f4xx_it.o(i.DebugMon_Handler)
    HardFault_Handler                        0x080009df   Thumb Code     4  stm32f4xx_it.o(i.HardFault_Handler)
    Initialise_LCD_Controller                0x080009e3   Thumb Code   100  lcd_display.o(i.Initialise_LCD_Controller)
    InstructionOrData                        0x08000a49   Thumb Code    42  lcd_display.o(i.InstructionOrData)
    LL_mDelay                                0x08000d2d   Thumb Code    40  stm32f4xx_ll_utils.o(i.LL_mDelay)
    MemManage_Handler                        0x08000d55   Thumb Code     4  stm32f4xx_it.o(i.MemManage_Handler)
    NMI_Handler                              0x08000d59   Thumb Code     2  stm32f4xx_it.o(i.NMI_Handler)
    PendSV_Handler                           0x08000d5b   Thumb Code     2  stm32f4xx_it.o(i.PendSV_Handler)
    Reset_Display_Pin                        0x08000d5d   Thumb Code    26  lcd_display.o(i.Reset_Display_Pin)
    SVC_Handler                              0x08000d7d   Thumb Code     2  stm32f4xx_it.o(i.SVC_Handler)
    Send_SPI_Byte                            0x08000d81   Thumb Code    26  lcd_display.o(i.Send_SPI_Byte)
    SysTick_Config_MCE2                      0x08000df5   Thumb Code    32  time_delays.o(i.SysTick_Config_MCE2)
    SysTick_Handler                          0x08000e19   Thumb Code    12  time_delays.o(i.SysTick_Handler)
    SystemClock_Config                       0x08000e29   Thumb Code   250  clk_config.o(i.SystemClock_Config)
    SystemInit                               0x08000f39   Thumb Code    82  system_stm32f4xx.o(i.SystemInit)
    UsageFault_Handler                       0x08000f9d   Thumb Code     4  stm32f4xx_it.o(i.UsageFault_Handler)
    Write_Command_To_LCD                     0x08000fa1   Thumb Code    30  lcd_display.o(i.Write_Command_To_LCD)
    Write_Data_To_LCD                        0x08000fbf   Thumb Code    30  lcd_display.o(i.Write_Data_To_LCD)
    _is_digit                                0x08000fdd   Thumb Code    14  __printf_wp.o(i._is_digit)
    calculate_checksum                       0x08000feb   Thumb Code    50  main.o(i.calculate_checksum)
    character                                0x0800101d   Thumb Code   236  lcd_display.o(i.character)
    height                                   0x08001115   Thumb Code    22  lcd_display.o(i.height)
    joystick_centre                          0x08001131   Thumb Code    12  main.o(i.joystick_centre)
    joystick_down                            0x08001141   Thumb Code    12  main.o(i.joystick_down)
    joystick_left                            0x08001151   Thumb Code    12  main.o(i.joystick_left)
    joystick_right                           0x08001161   Thumb Code    12  main.o(i.joystick_right)
    joystick_up                              0x08001171   Thumb Code    12  main.o(i.joystick_up)
    locate                                   0x08001181   Thumb Code    10  lcd_display.o(i.locate)
    main                                     0x08001195   Thumb Code   892  main.o(i.main)
    pixel                                    0x08001581   Thumb Code   142  lcd_display.o(i.pixel)
    put_char                                 0x08001615   Thumb Code    80  lcd_display.o(i.put_char)
    put_checksum_into_packet                 0x08001671   Thumb Code    24  main.o(i.put_checksum_into_packet)
    put_string                               0x08001689   Thumb Code    68  lcd_display.o(i.put_string)
    read_from_acc                            0x080016d1   Thumb Code   150  main.o(i.read_from_acc)
    read_multiple_bytes                      0x0800176d   Thumb Code   222  main.o(i.read_multiple_bytes)
    return_checksum                          0x08001851   Thumb Code    16  main.o(i.return_checksum)
    set_font                                 0x08001861   Thumb Code     6  lcd_display.o(i.set_font)
    setup_peripherals                        0x0800186d   Thumb Code   308  main.o(i.setup_peripherals)
    width                                    0x080019b9   Thumb Code    22  lcd_display.o(i.width)
    write_in_page_mode                       0x080019d5   Thumb Code   222  main.o(i.write_in_page_mode)
    _fp_init                                 0x08001ab9   Thumb Code    10  fpinit.o(x$fpl$fpinit)
    __fplib_config_fpu_vfp                   0x08001ac1   Thumb Code     0  fpinit.o(x$fpl$fpinit)
    __fplib_config_pureend_doubles           0x08001ac1   Thumb Code     0  fpinit.o(x$fpl$fpinit)
    Small_7                                  0x08001aef   Data        1828  main.o(.constdata)
    Arial_9                                  0x08002213   Data        2212  main.o(.constdata)
    Arial_12                                 0x08002ab7   Data        2404  main.o(.constdata)
    Arial_24                                 0x0800341b   Data        7012  main.o(.constdata)
    Region$$Table$$Base                      0x08005028   Number         0  anon$$obj.o(Region$$Table)
    Region$$Table$$Limit                     0x08005048   Number         0  anon$$obj.o(Region$$Table)
    SystemCoreClock                          0x20000000   Data           4  system_stm32f4xx.o(.data)
    char_x                                   0x20000008   Data           4  lcd_display.o(.data)
    char_y                                   0x2000000c   Data           4  lcd_display.o(.data)
    orientation                              0x20000010   Data           4  lcd_display.o(.data)
    font                                     0x20000014   Data           4  lcd_display.o(.data)
    buffer                                   0x20000018   Data         512  lcd_display.o(.bss)
    __libspace_start                         0x20000218   Data          96  libspace.o(.bss)
    __temporary_stack_top$libspace           0x20000278   Data           0  libspace.o(.bss)



==============================================================================

Memory Map of the image

  Image Entry point : 0x08000195

  Load Region LR_IROM1 (Base: 0x08000000, Size: 0x00005060, Max: 0x00080000, ABSOLUTE)

    Execution Region ER_IROM1 (Exec base: 0x08000000, Load base: 0x08000000, Size: 0x00005048, Max: 0x00080000, ABSOLUTE)

    Exec Addr    Load Addr    Size         Type   Attr      Idx    E Section Name        Object

    0x08000000   0x08000000   0x00000194   Data   RO          175    RESET               startup_stm32f401xe.o
    0x08000194   0x08000194   0x00000008   Code   RO         1915  * !!!main             c_w.l(__main.o)
    0x0800019c   0x0800019c   0x00000034   Code   RO         2087    !!!scatter          c_w.l(__scatter.o)
    0x080001d0   0x080001d0   0x0000001a   Code   RO         2089    !!handler_copy      c_w.l(__scatter_copy.o)
    0x080001ea   0x080001ea   0x00000002   PAD
    0x080001ec   0x080001ec   0x0000001c   Code   RO         2091    !!handler_zi        c_w.l(__scatter_zi.o)
    0x08000208   0x08000208   0x00000000   Code   RO         1906    .ARM.Collect$$_printf_percent$$00000000  c_w.l(_printf_percent.o)
    0x08000208   0x08000208   0x00000006   Code   RO         1905    .ARM.Collect$$_printf_percent$$0000000C  c_w.l(_printf_x.o)
    0x0800020e   0x0800020e   0x00000006   Code   RO         1904    .ARM.Collect$$_printf_percent$$00000014  c_w.l(_printf_s.o)
    0x08000214   0x08000214   0x00000004   Code   RO         1926    .ARM.Collect$$_printf_percent$$00000017  c_w.l(_printf_percent_end.o)
    0x08000218   0x08000218   0x00000002   Code   RO         1955    .ARM.Collect$$libinit$$00000000  c_w.l(libinit.o)
    0x0800021a   0x0800021a   0x00000004   Code   RO         1961    .ARM.Collect$$libinit$$00000001  c_w.l(libinit2.o)
    0x0800021e   0x0800021e   0x00000000   Code   RO         1964    .ARM.Collect$$libinit$$00000004  c_w.l(libinit2.o)
    0x0800021e   0x0800021e   0x00000000   Code   RO         1967    .ARM.Collect$$libinit$$0000000A  c_w.l(libinit2.o)
    0x0800021e   0x0800021e   0x00000000   Code   RO         1969    .ARM.Collect$$libinit$$0000000C  c_w.l(libinit2.o)
    0x0800021e   0x0800021e   0x00000000   Code   RO         1971    .ARM.Collect$$libinit$$0000000E  c_w.l(libinit2.o)
    0x0800021e   0x0800021e   0x00000000   Code   RO         1974    .ARM.Collect$$libinit$$00000011  c_w.l(libinit2.o)
    0x0800021e   0x0800021e   0x00000000   Code   RO         1976    .ARM.Collect$$libinit$$00000013  c_w.l(libinit2.o)
    0x0800021e   0x0800021e   0x00000000   Code   RO         1978    .ARM.Collect$$libinit$$00000015  c_w.l(libinit2.o)
    0x0800021e   0x0800021e   0x00000000   Code   RO         1980    .ARM.Collect$$libinit$$00000017  c_w.l(libinit2.o)
    0x0800021e   0x0800021e   0x00000000   Code   RO         1982    .ARM.Collect$$libinit$$00000019  c_w.l(libinit2.o)
    0x0800021e   0x0800021e   0x00000000   Code   RO         1984    .ARM.Collect$$libinit$$0000001B  c_w.l(libinit2.o)
    0x0800021e   0x0800021e   0x00000000   Code   RO         1986    .ARM.Collect$$libinit$$0000001D  c_w.l(libinit2.o)
    0x0800021e   0x0800021e   0x00000000   Code   RO         1988    .ARM.Collect$$libinit$$0000001F  c_w.l(libinit2.o)
    0x0800021e   0x0800021e   0x00000000   Code   RO         1990    .ARM.Collect$$libinit$$00000021  c_w.l(libinit2.o)
    0x0800021e   0x0800021e   0x00000000   Code   RO         1992    .ARM.Collect$$libinit$$00000023  c_w.l(libinit2.o)
    0x0800021e   0x0800021e   0x00000000   Code   RO         1994    .ARM.Collect$$libinit$$00000025  c_w.l(libinit2.o)
    0x0800021e   0x0800021e   0x00000000   Code   RO         1998    .ARM.Collect$$libinit$$0000002C  c_w.l(libinit2.o)
    0x0800021e   0x0800021e   0x00000000   Code   RO         2000    .ARM.Collect$$libinit$$0000002E  c_w.l(libinit2.o)
    0x0800021e   0x0800021e   0x00000000   Code   RO         2002    .ARM.Collect$$libinit$$00000030  c_w.l(libinit2.o)
    0x0800021e   0x0800021e   0x00000000   Code   RO         2004    .ARM.Collect$$libinit$$00000032  c_w.l(libinit2.o)
    0x0800021e   0x0800021e   0x00000002   Code   RO         2005    .ARM.Collect$$libinit$$00000033  c_w.l(libinit2.o)
    0x08000220   0x08000220   0x00000002   Code   RO         2025    .ARM.Collect$$libshutdown$$00000000  c_w.l(libshutdown.o)
    0x08000222   0x08000222   0x00000000   Code   RO         2038    .ARM.Collect$$libshutdown$$00000002  c_w.l(libshutdown2.o)
    0x08000222   0x08000222   0x00000000   Code   RO         2040    .ARM.Collect$$libshutdown$$00000004  c_w.l(libshutdown2.o)
    0x08000222   0x08000222   0x00000000   Code   RO         2042    .ARM.Collect$$libshutdown$$00000006  c_w.l(libshutdown2.o)
    0x08000222   0x08000222   0x00000000   Code   RO         2045    .ARM.Collect$$libshutdown$$00000009  c_w.l(libshutdown2.o)
    0x08000222   0x08000222   0x00000000   Code   RO         2048    .ARM.Collect$$libshutdown$$0000000C  c_w.l(libshutdown2.o)
    0x08000222   0x08000222   0x00000000   Code   RO         2050    .ARM.Collect$$libshutdown$$0000000E  c_w.l(libshutdown2.o)
    0x08000222   0x08000222   0x00000000   Code   RO         2053    .ARM.Collect$$libshutdown$$00000011  c_w.l(libshutdown2.o)
    0x08000222   0x08000222   0x00000002   Code   RO         2054    .ARM.Collect$$libshutdown$$00000012  c_w.l(libshutdown2.o)
    0x08000224   0x08000224   0x00000000   Code   RO         1917    .ARM.Collect$$rtentry$$00000000  c_w.l(__rtentry.o)
    0x08000224   0x08000224   0x00000000   Code   RO         1930    .ARM.Collect$$rtentry$$00000002  c_w.l(__rtentry2.o)
    0x08000224   0x08000224   0x00000006   Code   RO         1942    .ARM.Collect$$rtentry$$00000004  c_w.l(__rtentry4.o)
    0x0800022a   0x0800022a   0x00000000   Code   RO         1932    .ARM.Collect$$rtentry$$00000009  c_w.l(__rtentry2.o)
    0x0800022a   0x0800022a   0x00000004   Code   RO         1933    .ARM.Collect$$rtentry$$0000000A  c_w.l(__rtentry2.o)
    0x0800022e   0x0800022e   0x00000000   Code   RO         1935    .ARM.Collect$$rtentry$$0000000C  c_w.l(__rtentry2.o)
    0x0800022e   0x0800022e   0x00000008   Code   RO         1936    .ARM.Collect$$rtentry$$0000000D  c_w.l(__rtentry2.o)
    0x08000236   0x08000236   0x00000002   Code   RO         1959    .ARM.Collect$$rtexit$$00000000  c_w.l(rtexit.o)
    0x08000238   0x08000238   0x00000000   Code   RO         2007    .ARM.Collect$$rtexit$$00000002  c_w.l(rtexit2.o)
    0x08000238   0x08000238   0x00000004   Code   RO         2008    .ARM.Collect$$rtexit$$00000003  c_w.l(rtexit2.o)
    0x0800023c   0x0800023c   0x00000006   Code   RO         2009    .ARM.Collect$$rtexit$$00000004  c_w.l(rtexit2.o)
    0x08000242   0x08000242   0x00000002   PAD
    0x08000244   0x08000244   0x00000040   Code   RO          176    .text               startup_stm32f401xe.o
    0x08000284   0x08000284   0x00000028   Code   RO         1857    .text               c_w.l(noretval__2sprintf.o)
    0x080002ac   0x080002ac   0x00000052   Code   RO         1861    .text               c_w.l(_printf_str.o)
    0x080002fe   0x080002fe   0x00000002   PAD
    0x08000300   0x08000300   0x00000058   Code   RO         1866    .text               c_w.l(_printf_hex_int.o)
    0x08000358   0x08000358   0x0000010e   Code   RO         1892    .text               c_w.l(__printf_wp.o)
    0x08000466   0x08000466   0x0000003e   Code   RO         1907    .text               c_w.l(strlen.o)
    0x080004a4   0x080004a4   0x00000064   Code   RO         1909    .text               c_w.l(rt_memcpy_w.o)
    0x08000508   0x08000508   0x00000044   Code   RO         1911    .text               c_w.l(rt_memclr.o)
    0x0800054c   0x0800054c   0x00000006   Code   RO         1913    .text               c_w.l(heapauxi.o)
    0x08000552   0x08000552   0x000000b2   Code   RO         1918    .text               c_w.l(_printf_intcommon.o)
    0x08000604   0x08000604   0x00000030   Code   RO         1920    .text               c_w.l(_printf_char_common.o)
    0x08000634   0x08000634   0x0000000a   Code   RO         1922    .text               c_w.l(_sputc.o)
    0x0800063e   0x0800063e   0x0000002c   Code   RO         1924    .text               c_w.l(_printf_char.o)
    0x0800066a   0x0800066a   0x0000004e   Code   RO         1927    .text               c_w.l(rt_memclr_w.o)
    0x080006b8   0x080006b8   0x0000004a   Code   RO         1946    .text               c_w.l(sys_stackheap_outer.o)
    0x08000702   0x08000702   0x00000012   Code   RO         1948    .text               c_w.l(exit.o)
    0x08000714   0x08000714   0x00000008   Code   RO         1956    .text               c_w.l(libspace.o)
    0x0800071c   0x0800071c   0x0000000c   Code   RO         2017    .text               c_w.l(sys_exit.o)
    0x08000728   0x08000728   0x00000002   Code   RO         2028    .text               c_w.l(use_no_semi.o)
    0x0800072a   0x0800072a   0x00000000   Code   RO         2030    .text               c_w.l(indicate_semi.o)
    0x0800072a   0x0800072a   0x00000002   PAD
    0x0800072c   0x0800072c   0x00000018   Code   RO         1396    i.Activate_SPI1     lcd_display.o
    0x08000744   0x08000744   0x00000004   Code   RO            4    i.BusFault_Handler  stm32f4xx_it.o
    0x08000748   0x08000748   0x00000020   Code   RO         1397    i.Chip_Select_Pin   lcd_display.o
    0x08000768   0x08000768   0x00000018   Code   RO         1398    i.Clear_Screen      lcd_display.o
    0x08000780   0x08000780   0x000000f0   Code   RO         1399    i.Configure_LCD_Pins  lcd_display.o
    0x08000870   0x08000870   0x000000ac   Code   RO         1400    i.Configure_SPI1    lcd_display.o
    0x0800091c   0x0800091c   0x000000c0   Code   RO         1401    i.Copy_Data_Buffer_To_LCD  lcd_display.o
    0x080009dc   0x080009dc   0x00000002   Code   RO            5    i.DebugMon_Handler  stm32f4xx_it.o
    0x080009de   0x080009de   0x00000004   Code   RO            6    i.HardFault_Handler  stm32f4xx_it.o
    0x080009e2   0x080009e2   0x00000064   Code   RO         1405    i.Initialise_LCD_Controller  lcd_display.o
    0x08000a46   0x08000a46   0x00000002   PAD
    0x08000a48   0x08000a48   0x00000030   Code   RO         1406    i.InstructionOrData  lcd_display.o
    0x08000a78   0x08000a78   0x0000001c   Code   RO         1408    i.LL_AHB1_GRP1_EnableClock  lcd_display.o
    0x08000a94   0x08000a94   0x0000001c   Code   RO         1638    i.LL_AHB1_GRP1_EnableClock  main.o
    0x08000ab0   0x08000ab0   0x00000012   Code   RO         1639    i.LL_GPIO_IsInputPinSet  main.o
    0x08000ac2   0x08000ac2   0x00000006   Code   RO         1409    i.LL_GPIO_ResetOutputPin  lcd_display.o
    0x08000ac8   0x08000ac8   0x00000028   Code   RO         1410    i.LL_GPIO_SetAFPin_0_7  lcd_display.o
    0x08000af0   0x08000af0   0x0000002c   Code   RO         1640    i.LL_GPIO_SetAFPin_8_15  main.o
    0x08000b1c   0x08000b1c   0x00000004   Code   RO         1411    i.LL_GPIO_SetOutputPin  lcd_display.o
    0x08000b20   0x08000b20   0x00000028   Code   RO         1412    i.LL_GPIO_SetPinMode  lcd_display.o
    0x08000b48   0x08000b48   0x00000028   Code   RO         1641    i.LL_GPIO_SetPinMode  main.o
    0x08000b70   0x08000b70   0x00000010   Code   RO         1642    i.LL_GPIO_SetPinOutputType  main.o
    0x08000b80   0x08000b80   0x00000028   Code   RO         1413    i.LL_GPIO_SetPinPull  lcd_display.o
    0x08000ba8   0x08000ba8   0x00000028   Code   RO         1643    i.LL_GPIO_SetPinPull  main.o
    0x08000bd0   0x08000bd0   0x00000028   Code   RO         1414    i.LL_GPIO_SetPinSpeed  lcd_display.o
    0x08000bf8   0x08000bf8   0x0000000c   Code   RO         1644    i.LL_I2C_AcknowledgeNextData  main.o
    0x08000c04   0x08000c04   0x00000010   Code   RO         1645    i.LL_I2C_ClearFlag_ADDR  main.o
    0x08000c14   0x08000c14   0x0000000a   Code   RO         1646    i.LL_I2C_ClearFlag_AF  main.o
    0x08000c1e   0x08000c1e   0x00000002   PAD
    0x08000c20   0x08000c20   0x000000bc   Code   RO         1647    i.LL_I2C_ConfigSpeed  main.o
    0x08000cdc   0x08000cdc   0x0000000a   Code   RO         1648    i.LL_I2C_GenerateStartCondition  main.o
    0x08000ce6   0x08000ce6   0x0000000a   Code   RO         1649    i.LL_I2C_GenerateStopCondition  main.o
    0x08000cf0   0x08000cf0   0x0000000a   Code   RO         1650    i.LL_I2C_IsActiveFlag_ADDR  main.o
    0x08000cfa   0x08000cfa   0x0000000a   Code   RO         1651    i.LL_I2C_IsActiveFlag_RXNE  main.o
    0x08000d04   0x08000d04   0x0000000a   Code   RO         1652    i.LL_I2C_IsActiveFlag_SB  main.o
    0x08000d0e   0x08000d0e   0x0000000a   Code   RO         1653    i.LL_I2C_IsActiveFlag_TXE  main.o
    0x08000d18   0x08000d18   0x00000008   Code   RO         1654    i.LL_I2C_ReceiveData8  main.o
    0x08000d20   0x08000d20   0x0000000c   Code   RO         1655    i.LL_I2C_TransmitData8  main.o
    0x08000d2c   0x08000d2c   0x00000028   Code   RO          238    i.LL_mDelay         stm32f4xx_ll_utils.o
    0x08000d54   0x08000d54   0x00000004   Code   RO            7    i.MemManage_Handler  stm32f4xx_it.o
    0x08000d58   0x08000d58   0x00000002   Code   RO            8    i.NMI_Handler       stm32f4xx_it.o
    0x08000d5a   0x08000d5a   0x00000002   Code   RO            9    i.PendSV_Handler    stm32f4xx_it.o
    0x08000d5c   0x08000d5c   0x00000020   Code   RO         1415    i.Reset_Display_Pin  lcd_display.o
    0x08000d7c   0x08000d7c   0x00000002   Code   RO           10    i.SVC_Handler       stm32f4xx_it.o
    0x08000d7e   0x08000d7e   0x00000002   PAD
    0x08000d80   0x08000d80   0x00000020   Code   RO         1416    i.Send_SPI_Byte     lcd_display.o
    0x08000da0   0x08000da0   0x00000054   Code   RO         1298    i.SysTick_Config    time_delays.o
    0x08000df4   0x08000df4   0x00000024   Code   RO         1299    i.SysTick_Config_MCE2  time_delays.o
    0x08000e18   0x08000e18   0x00000010   Code   RO         1300    i.SysTick_Handler   time_delays.o
    0x08000e28   0x08000e28   0x00000110   Code   RO         1366    i.SystemClock_Config  clk_config.o
    0x08000f38   0x08000f38   0x00000064   Code   RO          184    i.SystemInit        system_stm32f4xx.o
    0x08000f9c   0x08000f9c   0x00000004   Code   RO           11    i.UsageFault_Handler  stm32f4xx_it.o
    0x08000fa0   0x08000fa0   0x0000001e   Code   RO         1418    i.Write_Command_To_LCD  lcd_display.o
    0x08000fbe   0x08000fbe   0x0000001e   Code   RO         1419    i.Write_Data_To_LCD  lcd_display.o
    0x08000fdc   0x08000fdc   0x0000000e   Code   RO         1894    i._is_digit         c_w.l(__printf_wp.o)
    0x08000fea   0x08000fea   0x00000032   Code   RO         1656    i.calculate_checksum  main.o
    0x0800101c   0x0800101c   0x000000f8   Code   RO         1421    i.character         lcd_display.o
    0x08001114   0x08001114   0x0000001c   Code   RO         1423    i.height            lcd_display.o
    0x08001130   0x08001130   0x00000010   Code   RO         1657    i.joystick_centre   main.o
    0x08001140   0x08001140   0x00000010   Code   RO         1658    i.joystick_down     main.o
    0x08001150   0x08001150   0x00000010   Code   RO         1659    i.joystick_left     main.o
    0x08001160   0x08001160   0x00000010   Code   RO         1660    i.joystick_right    main.o
    0x08001170   0x08001170   0x00000010   Code   RO         1661    i.joystick_up       main.o
    0x08001180   0x08001180   0x00000014   Code   RO         1424    i.locate            lcd_display.o
    0x08001194   0x08001194   0x000003ec   Code   RO         1662    i.main              main.o
    0x08001580   0x08001580   0x00000094   Code   RO         1425    i.pixel             lcd_display.o
    0x08001614   0x08001614   0x0000005c   Code   RO         1426    i.put_char          lcd_display.o
    0x08001670   0x08001670   0x00000018   Code   RO         1663    i.put_checksum_into_packet  main.o
    0x08001688   0x08001688   0x00000048   Code   RO         1427    i.put_string        lcd_display.o
    0x080016d0   0x080016d0   0x0000009c   Code   RO         1664    i.read_from_acc     main.o
    0x0800176c   0x0800176c   0x000000e4   Code   RO         1666    i.read_multiple_bytes  main.o
    0x08001850   0x08001850   0x00000010   Code   RO         1667    i.return_checksum   main.o
    0x08001860   0x08001860   0x0000000c   Code   RO         1429    i.set_font          lcd_display.o
    0x0800186c   0x0800186c   0x0000014c   Code   RO         1668    i.setup_peripherals  main.o
    0x080019b8   0x080019b8   0x0000001c   Code   RO         1430    i.width             lcd_display.o
    0x080019d4   0x080019d4   0x000000e4   Code   RO         1669    i.write_in_page_mode  main.o
    0x08001ab8   0x08001ab8   0x0000000a   Code   RO         2015    x$fpl$fpinit        fz_wm.l(fpinit.o)
    0x08001ac2   0x08001ac2   0x00000002   PAD
    0x08001ac4   0x08001ac4   0x000034f8   Data   RO         1671    .constdata          main.o
    0x08004fbc   0x08004fbc   0x00000028   Data   RO         1867    .constdata          c_w.l(_printf_hex_int.o)
    0x08004fe4   0x08004fe4   0x00000042   Data   RO         1672    .conststring        main.o
    0x08005026   0x08005026   0x00000002   PAD
    0x08005028   0x08005028   0x00000020   Data   RO         2085    Region$$Table       anon$$obj.o


    Execution Region RW_IRAM1 (Exec base: 0x20000000, Load base: 0x08005048, Size: 0x00000878, Max: 0x00018000, ABSOLUTE)

    Exec Addr    Load Addr    Size         Type   Attr      Idx    E Section Name        Object

    0x20000000   0x08005048   0x00000004   Data   RW          186    .data               system_stm32f4xx.o
    0x20000004   0x0800504c   0x00000004   Data   RW         1305    .data               time_delays.o
    0x20000008   0x08005050   0x00000010   Data   RW         1433    .data               lcd_display.o
    0x20000018        -       0x00000200   Zero   RW         1431    .bss                lcd_display.o
    0x20000218        -       0x00000060   Zero   RW         1957    .bss                c_w.l(libspace.o)
    0x20000278        -       0x00000200   Zero   RW          174    HEAP                startup_stm32f401xe.o
    0x20000478        -       0x00000400   Zero   RW          173    STACK               startup_stm32f401xe.o


==============================================================================

Image component sizes


      Code (inc. data)   RO Data    RW Data    ZI Data      Debug   Object Name

       272         22          0          0          0      29301   clk_config.o
      1802        126          0         16        512      35901   lcd_display.o
      2610        194      13626          0          0      39337   main.o
        64         26        404          0       1536        884   startup_stm32f401xe.o
        24          0          0          0          0     351168   stm32f4xx_it.o
        40          0          0          0          0       7516   stm32f4xx_ll_utils.o
       100         18          0          4          0       1355   system_stm32f4xx.o
       136         18          0          4          0      32443   time_delays.o

    ----------------------------------------------------------------------
      5054        404      14064         24       2048     497905   Object Totals
         0          0         32          0          0          0   (incl. Generated)
         6          0          2          0          0          0   (incl. Padding)

    ----------------------------------------------------------------------

      Code (inc. data)   RO Data    RW Data    ZI Data      Debug   Library Member Name

         8          0          0          0          0         68   __main.o
       284          0          0          0          0        156   __printf_wp.o
         0          0          0          0          0          0   __rtentry.o
        12          0          0          0          0          0   __rtentry2.o
         6          0          0          0          0          0   __rtentry4.o
        52          8          0          0          0          0   __scatter.o
        26          0          0          0          0          0   __scatter_copy.o
        28          0          0          0          0          0   __scatter_zi.o
        44          0          0          0          0        108   _printf_char.o
        48          6          0          0          0         96   _printf_char_common.o
        88          4         40          0          0         88   _printf_hex_int.o
       178          0          0          0          0         88   _printf_intcommon.o
         0          0          0          0          0          0   _printf_percent.o
         4          0          0          0          0          0   _printf_percent_end.o
         6          0          0          0          0          0   _printf_s.o
        82          0          0          0          0         80   _printf_str.o
         6          0          0          0          0          0   _printf_x.o
        10          0          0          0          0         68   _sputc.o
        18          0          0          0          0         80   exit.o
         6          0          0          0          0        152   heapauxi.o
         0          0          0          0          0          0   indicate_semi.o
         2          0          0          0          0          0   libinit.o
         6          0          0          0          0          0   libinit2.o
         2          0          0          0          0          0   libshutdown.o
         2          0          0          0          0          0   libshutdown2.o
         8          4          0          0         96         68   libspace.o
        40          6          0          0          0         84   noretval__2sprintf.o
        68          0          0          0          0         68   rt_memclr.o
        78          0          0          0          0         80   rt_memclr_w.o
       100          0          0          0          0         80   rt_memcpy_w.o
         2          0          0          0          0          0   rtexit.o
        10          0          0          0          0          0   rtexit2.o
        62          0          0          0          0         76   strlen.o
        12          4          0          0          0         68   sys_exit.o
        74          0          0          0          0         80   sys_stackheap_outer.o
         2          0          0          0          0         68   use_no_semi.o
        10          0          0          0          0        116   fpinit.o

    ----------------------------------------------------------------------
      1394         32         40          0         96       1772   Library Totals
        10          0          0          0          0          0   (incl. Padding)

    ----------------------------------------------------------------------

      Code (inc. data)   RO Data    RW Data    ZI Data      Debug   Library Name

      1374         32         40          0         96       1656   c_w.l
        10          0          0          0          0        116   fz_wm.l

    ----------------------------------------------------------------------
      1394         32         40          0         96       1772   Library Totals

    ----------------------------------------------------------------------

==============================================================================


      Code (inc. data)   RO Data    RW Data    ZI Data      Debug   

      6448        436      14104         24       2144     492345   Grand Totals
      6448        436      14104         24       2144     492345   ELF Image Totals
      6448        436      14104         24          0          0   ROM Totals

==============================================================================

    Total RO  Size (Code + RO Data)                20552 (  20.07kB)
    Total RW  Size (RW Data + ZI Data)              2168 (   2.12kB)
    Total ROM Size (Code + RO Data + RW Data)      20576 (  20.09kB)

==============================================================================

